:1000000000000120B5020000DD020000131900000D
:10001000E1020000E3020000E50200000000000031
:10002000000000000000000000000000E7020000E7
:10003000E902000000000000EB020000ED020000F9
:10004000EF020000EF02000015A300005D9C00001D
:100050005D920000EF020000CD80000019F7000063
:1000600085CA0000A1CA0000EF020000EF020000F4
:10007000EF020000EF020000EF020000EF020000BC
:10008000EF0200005D5D0000EF020000EF020000E3
:100090009D5D0000EF020000EF020000EF02000093
:1000A000EF020000EF020000EF020000EF0200008C
:1000B000EF020000EF02000000000000000000005E
:1000C000EF020000EF020000EF020000EF0200006C
:1000D000EF020000EF020000EF020000000000004D
:1000E0000000000000000000000000000000000010
:1000F0000000000000000000000000000000000000
:1001000000000000000000000000000000000000EF
:1001100000000000000000000000000000000000DF
:1001200000000000000000000000000000000000CF
:1001300000000000000000000000000000000000BF
:1001400000000000000000000000000000000000AF
:10015000000000000000000000000000000000009F
:10016000000000000000000000000000000000008F
:10017000000000000000000000000000000000007F
:10018000000000000000000000000000000000006F
:10019000000000000000000000000000000000005F
:1001A000000000000000000000000000000000004F
:1001B000000000000000000000000000000000003F
:1001C000000000000000000000000000000000002F
:1001D000000000000000000000000000000000001F
:1001E000000000000000000000000000000000000F
:1001F00000000000000000000000000000000000FF
:1002000010B5054C237833B9044B13B10448AFF350
:1002100000800123237010BDF809002000000000B9
:100220008876010008B5034B1BB103490348AFF3BF
:10023000008008BD00000000FC0900208876010055
:10024000154B002B08BF134B9D46A3F5803A0021A8
:100250008B460F461348144A121A10F085F90F4BBB
:10026000002B00D098470E4B002B00D09847002061
:10027000002104000D000D48002802D00C4812F0A7
:100280008FF810F081F82000290001F0D5FA10F065
:100290006BF800BF00000800000001200000000013
:1002A00000000000F8090020C8340020A12301004C
:1002B000253301000649074A074B9B1A03DD043B1F
:1002C000C858D050FBDC0CF01BFCFFF7B9FF000056
:1002D0009476010000000020F8090020FEE7FEE708
:1002E000FEE7FEE7FEE7FEE7FEE7FEE7FEE7FEE7E6
:1002F00080B483B000AF78607B68D3F81035DBB290
:1003000018460C37BD465DF8047B704780B485B055
:1003100000AF78600B46FB70FB78FB607B684FF4A6
:100320007A5202FB03F2FB6822FA03F318461437F1
:10033000BD465DF8047B704780B582B000AF786041
:1003400039607B681B681846FFF7D2FF03461946E1
:100350003868FFF7DBFF034618460837BD4680BD07
:1003600080B586B000AF4FF080430022C3F8002173
:100370004FF0804301221A60194B00221A60184B7B
:100380001B68184A136000237B6108E0164A7B69EA
:100390005B00134401225A707B6901337B617B69E6
:1003A000092BF3DD114A07F10C0392E8030083E8FF
:1003B000030007F10C030E4A19460E480CF050F9E1
:1003C0000A4A3B1D92E8030083E803003B1D0A4AEA
:1003D00019460A480CF044F900BF1837BD4680BDE5
:1003E000280A00202C0A0020140A0020206901009D
:1003F0001504000010690100A9040000186901003B
:1004000080B500AF02480CF0E7F900BF80BD00BF27
:100410001069010080B584B000AF03463960FB80ED
:1004200000233B73387B00F087F8FFF7E9FF00BF3C
:100430001037BD4680BD000080B588B002AF78603F
:10044000FFF7DEFF104A07F10C0392E8030083E890
:10045000030007F10C030D4A19460D480CF000F992
:1004600079680B48FFF768FF786101230093012347
:100470007A69002106480CF071FA05480CF090F9F1
:1004800000BF1837BD4680BD20690100150400007B
:100490001069010080B500AF02480CF09DF900BF63
:1004A00080BD00BF1869010080B584B000AF03466D
:1004B0003960FB8001233B73387B00F03DF800BFBF
:1004C0001037BD4680BD000080B588B002AF7860AF
:1004D000FFF7E0FF104A07F10C0392E8030083E8FE
:1004E000030007F10C030D4A19460D480CF0B8F84B
:1004F00079680B48FFF720FF7861012300930123FF
:100500007A69002106480CF029FA05480CF048F9F0
:1005100000BF1837BD4680BD20690100A904000056
:100520001869010080B500AF02480CF071F903466C
:10053000184680BD1869010080B485B000AF3871DD
:1005400072B60023FB601A4B1B681A4A5B00134407
:100550005B78002B21D0164B1B6816493A7901F8BD
:100560001320134B1B68134A5B00134400225A707C
:100570000F4B1B6801330E4A13600D4B19680E4B6D
:1005800083FB01239A10CB17D21A13469B00134406
:100590005B00CA1A064B1A6002E04FF0FF33FB60A3
:1005A00062B6FB6818461437BD465DF8047B704799
:1005B0002C0A0020140A00206766666680B485B0A5
:1005C00000AF786072B61B4B1B681B4A5B0013447C
:1005D0005B78002B24D1174B1A687B68164911F8F9
:1005E00012201A70134B1B68134A5B00134401223C
:1005F0005A70104B1B6801330E4A13600D4B19687B
:100600000E4B83FB01239A10CB17D21A13469B0083
:1006100013445B00CA1A074B1A600123FB6001E018
:100620000023FB6062B6FB6818461437BD465DF8D0
:10063000047B7047280A0020140A0020676666665B
:1006400080B483B000AF78604FF0A04318460C37F9
:10065000BD465DF8047B704780B584B000AF78601C
:100660003B1D1846FFF7ECFFF860F86800F00AF849
:1006700002467B6822FA03F303F0010318461037A1
:10068000BD4680BD80B483B000AF78607B68D3F88E
:10069000103518460C37BD465DF8047B70470000E6
:1006A000B0B5D6B004AF07F10C04206007F1080024
:1006B0000160C7E9002307F10C031B681B781C4687
:1006C00007F10C031B685B781D4607F10C031B68E0
:1006D0005B889BB21A4607F10C031B689B889BB290
:1006E000194607F13C0007F108031B6802930191CA
:1006F00000922B462246A0490FF0CAFF07F13C03A7
:10070000194600200DF06CF807F10C031B681B78EC
:10071000012B1ED107F10C031B685B889BB21846A6
:1007200004F072FD0346002B00F0208107F10C035A
:100730001B685B889BB21A4607F13C038F49184639
:100740000FF0A6FF07F13C03194600200DF048F812
:100750000CE107F10C031B681B7803F0F003102B6E
:1007600040F0048107F10C031B681B78132B35D173
:1007700007F10C031B68C7F84431D7F844311B8AD2
:100780009BB21A4607F13C037D4918460FF080FFE3
:1007900007F13C03194600200DF022F8D7F8443148
:1007A0005B889BB21946D7F844315B8A9BB21D46E1
:1007B000D7F844219368D46807F13C00CDE90234AE
:1007C000052300932B460A466E490FF061FF07F19F
:1007D0003C03194600200DF003F8C7E007F10C03B5
:1007E0001B681B78112B40F0C18007F11002D7E97C
:1007F0000034C2E9003407F1100307F10C0212685B
:100800009A6007F108031B689AB207F110039A81F6
:1008100007F110035C4A1A6107F10C031B681A7890
:1008200007F110031146184604F070FB034687F8E1
:10083000433197F84331002B0DD107F110031869AC
:1008400007F110039B8A194607F110039B691A46AA
:1008500004F074FC0DE097F8432107F13C034B4989
:1008600018460FF015FF07F13C03194600200CF065
:10087000B7FF07F10C031B68C7F83C31D7F83C31D0
:100880005B889BB21946D7F83C319B8C9BB21D46C6
:10089000D7F83C219368D46807F13C00CDE90234D5
:1008A000012300932B460A4636490FF0F1FE07F16B
:1008B0003C03194600200CF093FFD7F83C315B88CD
:1008C0009BB21946D7F83C319B8C9BB21D46D7F89A
:1008D0003C211369546907F13C00CDE9023402233D
:1008E00000932B460A4627490FF0D2FE07F13C033E
:1008F000194600200CF074FFD7F83C315B889BB29E
:100900001A46D7F83C319B8C9BB2194607F13C0044
:10091000D7E90034CDE90234032300930B4619498B
:100920000FF0B6FE07F13C03194600200CF058FF0B
:10093000D7F83C315B889BB21A46D7F83C319B8C88
:100940009BB2194607F11003D3E9083407F13C00C4
:10095000CDE90234042300930B460A490FF098FEB8
:1009600007F13C03194600200CF03AFF00BF07F5E1
:10097000A477BD46B0BD00BF2869010068690100C9
:100980008469010098690100480A0020AC690100EF
:10099000B0B5D2B004AF3B1D18603B46196004F0FF
:1009A00077FC0346002B58DD324B1B68184604F0D9
:1009B0007BFC0346A7F8363101F0F2F903460C46FA
:1009C00007F10802C2E9003407F108032A4A1A6154
:1009D00007F10802B7F836311146184604F038FA24
:1009E00007F10803186907F108039B8A194607F104
:1009F00008039B691A4604F0A1FB07F108031B6971
:100A0000C7F83031B7F83611D7F830311B8A9BB2AE
:100A10001D46D7F830219368D46807F13000CDE93E
:100A20000234002300932B460A4614490FF030FE8F
:100A300007F13003194600200CF0D2FE0D4B1B6865
:100A400001330C4A136004F023FC0246094B1B6877
:100A50009A4202DC074B00221A60094B18680023F7
:100A6000084A4FF4FA7100F02BFD00BF07F59C77A0
:100A7000BD46B0BDCC0A0020480A0020986901009C
:100A8000C80A00209109000080B5C2B000AF3B1D2C
:100A90002E4918460FF0FCFD3B1D194600200CF0B6
:100AA0009FFE0E212A4800F049FC1F21294800F032
:100AB00045FC4FF47A71274800F072FC04F086FB85
:100AC00000F0CAF90346184603F064FF01F0FEFC8B
:100AD00000F0C2F903462049184604F043FA00F03A
:100AE000B1FC02461D4B1A601C4B186800231C4ABF
:100AF0004FF4FA7100F0E4FC1BE097F80431002B8E
:100B000017D097F80431012B02D100F039FD10E025
:100B100097F80431022B0CD097F80431032B08D13D
:100B200001E002F051FF1320FFF796FD0346012B71
:100B3000F7D007F582731846FFF740FD0346002BF8
:100B4000DBD140BF20BF20BFD6E700BFD86901007E
:100B5000300A00203C0A0020A1060000C80A00203C
:100B60009109000080B483B000AF78604FF0A043DB
:100B700018460C37BD465DF8047B704780B584B0DD
:100B800000AF78603B1D1846FFF7ECFFF860F8688F
:100B900000F00AF802467B6822FA03F303F001032F
:100BA00018461037BD4680BD80B483B000AF786072
:100BB0007B68D3F8103518460C37BD465DF8047BCA
:100BC0007047000080B5C6B000AF3B1D18603B46C3
:100BD000196007F10C031E4918460FF059FD07F183
:100BE0000C03194600200CF0FBFD04F0D5FA6FF061
:100BF0000043C7F814310FF00FFDC7F81001D7F804
:100C0000103107EE903AF8EEE76AD7F8143107EEA4
:100C1000903AB8EEE77AC6EE877A9FED0E7A67EEE5
:100C2000877AFDEEE77A17EE903A03F59A5316337A
:100C3000C7F80C31084B18680023084AD7F80C1184
:100C400000F03EFC00BF07F58C77BD4680BD00BFBD
:100C5000F46901000000C842E80A0020C50B00004A
:100C6000B0B5D4B004AF07F10C04206007F1080060
:100C70000160C7E9002307F10C031B681B781C46C1
:100C800007F10C031B685B781D4607F10C031B681A
:100C90005B889BB21A4607F10C031B689B889BB2CA
:100CA000194607F13C0007F108031B680293019104
:100CB00000922B4622462F490FF0EAFC07F13C0335
:100CC000194600200CF08CFD07F10C031B681B7803
:100CD000102B05D007F10C031B681B78122B43D196
:100CE00007F11002D7E90034C2E9003407F110031C
:100CF00007F10C0212689A6007F108031B689AB2A8
:100D000007F110039A8107F110031B4A1A6107F1DA
:100D10000C031B681A7807F110031146184604F0FB
:100D2000F5F8034687F83F3197F83F31002B0DD196
:100D300007F11003186907F110039B8A194607F1A0
:100D400010039B691A4604F0F9F90DE097F83F216A
:100D500007F13C03094918460FF09AFC07F13C03E0
:100D6000194600200CF03CFD00BF07F5A077BD46FA
:100D7000B0BD00BF0C6A0100EC0A00204C6A010003
:100D800080B5C2B000AF3B1D2D4918460FF080FC66
:100D90003B1D194600200CF023FD0E21294800F0D0
:100DA000CDFA1F21284800F0C9FA4FF47A7125487E
:100DB00000F0F6FA00F050F80346184603F0EAFD9A
:100DC00001F084FB00F048F803462049184604F07F
:100DD000C9F800F037FB02461D4B1A601C4B18681F
:100DE00000231C4A4FF47A7100F06AFB1BE097F86D
:100DF0000431002B17D097F80431012B02D100F0F9
:100E0000BFFB10E097F80431022B0CD097F80431A7
:100E1000032B08D101E002F0D7FD1320FFF7AEFE4F
:100E20000346012BF7D007F582731846FFF7C6FB80
:100E30000346002BDBD140BF20BF20BFD6E700BF59
:100E4000786A0100D00A0020DC0A0020610C000052
:100E5000E80A0020C50B000080B400AF034B1B68FC
:100E60009BB21846BD465DF8047B704780100010A9
:100E700080B483B000AF78604FF0A04318460C37C1
:100E8000BD465DF8047B704780B584B000AF7860E4
:100E9000084611461A460346FB700B46BB701346C4
:100EA0007B703B1D1846FFF7E3FFF860FA78BB78CC
:100EB0005B001A437B789B001A433B7E1B0242EA8D
:100EC00003013B7F1B047A681943FB6802F5E0725B
:100ED00043F8221000BF1037BD4680BD80B584B0F6
:100EE00002AF78600B46FB70FA7800230193002371
:100EF00000931346002200217868FFF7C5FF00BF6A
:100F00000837BD4680BD80B584B000AF78603B1D1A
:100F10001846FFF7ADFFF860F86800F00AF80246DF
:100F20007B6822FA03F303F0010318461037BD462D
:100F300080BD80B483B000AF78607B68D3F8103593
:100F400018460C37BD465DF8047B704780B584B009
:100F500000AF78600B46FB7002233B73387BFFF7D2
:100F6000EBFA00F00CF800BF1037BD4680BD80B52D
:100F700000AF0121022006F0B9FF00BF80BD80B59F
:100F800000AF022007F01AF800BF80BD2DE9F04F36
:100F9000C9B000AF07F11403186007F1100319601E
:100FA0000220FFF7B0FFC7F81C014F4BD3E9003414
:100FB0005D1C44F100064C4BC3E90056D7F81C31C8
:100FC000002B48D1494B1B78012B3CD1464BD3E930
:100FD00000562B463446DA18BA6044EB0403FB6033
:100FE000D7E902345B1946EB04044FF000014FF0DF
:100FF0000002620142EAD36259015B1842EB040429
:1010000013EB050A44EB060B40F2CF734FF00004DC
:10101000534574EB0B0316DA07F11C0334491846E9
:101020000FF036FB07F11C03194600200CF0D8FB2B
:10103000304B1B68002B03D02E4B1B6802209847B7
:101040002A4B02221A702C4B186800232B4A642169
:1010500000F036FA42E0FFF78AFF244B1B78012BA1
:1010600039D1214BD3E900562B463446DA183A6081
:1010700044EB04037B60D7E900345B1946EB0404BE
:101080004FF000014FF00002620142EAD3625901C1
:101090005B1842EB040413EB050844EB060940F22D
:1010A000CF734FF00004434574EB090313DB07F1E2
:1010B0001C03134918460FF0EBFA07F11C031946FD
:1010C00000200CF08DFB0B4B1B68002B03D0094B51
:1010D0001B6801209847054B00221A7000BF07F5D6
:1010E0009277BD46BDE8F08F780B0020800B002082
:1010F000986A01006C0B0020700B00208D0F00001F
:10110000B46A010080B586B000AF78601C4A7B6885
:10111000136000F097F902461A4B1A60032102206F
:10112000FFF7DCFE00211E20FFF7D8FE00210C2077
:10113000FFF7D4FE03211A20FFF7D0FE07F10C03BE
:1011400000210A461A800A469A7002233B73032341
:101150007B7307F10C030C4A1946022006F056FE79
:1011600078617B693B613B69002B02D0386905F0EF
:1011700097F9FFF7FCFE00BF1837BD4680BD00BFE2
:101180006C0B0020700B00204D0F000098B500AFD5
:101190000D4B01221A700D4A4FF000034FF000046E
:1011A000C2E900340A4B1B68002B03D0084B1B68B4
:1011B00000209847074B18680023074A642100F075
:1011C0007FF900BF98BD00BF800B0020780B002086
:1011D0006C0B0020700B00208D0F000080B500AF5D
:1011E0000220FFF790FE0346002B14BF01230023CB
:1011F000DBB2184680BD80B483B000AF78604FF09A
:10120000A04318460C37BD465DF8047B704780B597
:1012100084B000AF7860084611461A460346FB705A
:101220000B46BB7013467B703B1D1846FFF7E3FF70
:10123000F860FA78BB785B001A437B789B001A430E
:101240003B7E1B0242EA03013B7F1B047A68194381
:10125000FB6802F5E07243F8221000BF1037BD466C
:1012600080BD80B584B002AF786000230193002375
:1012700000930023012201217868FFF7C8FF00BF17
:101280000837BD4680BD80B584B000AF78603B1D97
:101290001846FFF7B0FFF8607B68012202FA03F3FB
:1012A0001946F86800F02CF800BF1037BD4680BD25
:1012B00080B584B000AF78603B1D1846FFF79BFFF8
:1012C000F8607B68012202FA03F31946F86800F01F
:1012D00026F800BF1037BD4680BD80B582B000AF94
:1012E000786039603B68002B03D17868FFF7E0FF36
:1012F00002E07868FFF7C7FF00BF0837BD4680BD32
:1013000080B483B000AF786039607B683A68C3F816
:10131000082500BF0C37BD465DF8047B704780B4DC
:1013200083B000AF786039607B683A68C3F80C25F9
:1013300000BF0C37BD465DF8047B704780B582B0B6
:1013400000AF786039607B683A681A607B68012278
:101350001A7200F077F802467B685A603B681846BC
:10136000FFF77FFF3B6801211846FFF7B6FF00BF7C
:101370000837BD4680BD80B584B000AF7860396065
:101380003B68FB60FB6801221A72FB681B68012145
:101390001846FFF7A2FF00BF1037BD4680BD000012
:1013A00080B582B000AF786039607B681B6800212F
:1013B0001846FFF792FF7B6800221A727B68586814
:1013C0007B68044A396800F07BF800BF0837BD46E7
:1013D00080BD00BF7713000080B5C0B000AFFFF73D
:1013E000A1F8034683F00103DBB2002B0CD03B468F
:1013F000084918460FF04CF93B46194600200CF0FE
:10140000EFF96420FFF760F800BF07F58077BD466D
:1014100080BD00BFCC6A010080B5C0B000AF3B46C4
:10142000074918460FF034F93B46194600200CF0E6
:10143000D7F9FFF72FF800BF07F58077BD4680BDCD
:10144000DC6A010080B5C2B000AF1A4B1B68092BE3
:101450000AD93B1D184918460FF01AF93B1D1946C9
:1014600000200CF0BDF9FEE7124B1B68C7F80431F1
:101470001249D7F8042113469B0013449B000B44E8
:101480004FF0FF321A600D49D7F8042113469B0034
:1014900013449B000B44083300221A70054B1B6851
:1014A0000133044A1360D7F80431184607F58477EE
:1014B000BD4680BD4C0C0020EC6A0100840B00206E
:1014C00080B584B000AFF860B9607A603B601B49BA
:1014D000FA6813469B0013449B000B4400221A60D9
:1014E0001649FA6813469B0013449B000B440433CF
:1014F000BA681A601149FA6813469B0013449B00AE
:101500000B440C337A681A600C49FA6813469B0046
:1015100013449B000B44083301221A700749FA68F0
:1015200013469B0013449B000B4410333A681A6027
:10153000FFF752FF00BF1037BD4680BD840B00206F
:1015400080B582B000AF78600C497A6813469B0082
:1015500013449B000B444FF0FF321A6007497A682E
:1015600013469B0013449B000B44083300221A705F
:1015700000F006F800BF0837BD4680BD840B002090
:1015800090B585B000AF0023FB605EE04749FA6884
:1015900013469B0013449B000B441B68591C434893
:1015A000FA6813469B0013449B00034419603F49AB
:1015B000FA6813469B0013449B000B4408331B78C6
:1015C000002B3FD03949FA6813469B0013449B0017
:1015D0000B441B68642202FB03F13448FA6813468B
:1015E0009B0013449B00034404331B68994229DB8E
:1015F0002E49FA6813469B0013449B000B440833A2
:1016000000221A702949FA6813469B0013449B0074
:101610000B440C331B68002B14D02449FA68134682
:101620009B0013449B000B440C331C681F49FA6851
:1016300013469B0013449B000B4410331B68194650
:10164000F868A047FB680133FB60FA68184B1B6819
:101650009A429BD30023FB7200237B6013E0134963
:101660007A6813469B0013449B000B4408331A7896
:10167000FB7A1343DBB2002B14BF01230023FB7260
:101680007B6801337B607A68094B1B689A42E6D31A
:10169000FB7A83F00103DBB2002B01D0FFF7BCFE25
:1016A000FB7A18461437BD4690BD00BF840B00205E
:1016B0004C0C002080B582B000AF0346FB71FB7973
:1016C000002B02D0FFF788FE01E0FFF7A5FE00BF68
:1016D0000837BD4680BD000080B483B000AF78609D
:1016E00007497A6813469B0013449B000B44083358
:1016F0001B7818460C37BD465DF8047B704700BF69
:10170000840B002080B483B000AF786008497A6809
:1017100013469B0013449B000B441B68DB43DB0F09
:10172000DBB218460C37BD465DF8047B704700BF3E
:10173000840B002080B584B000AF78607B68002BFC
:101740000AD0074B43F00103FB607B689B01BB6041
:10175000FB68B868984700E000BF1037BD4680BD01
:10176000406B010080B582B000AF78607B68002BD1
:101770000AD04FF47A70FFF7DDFF7B68013B7B6096
:101780007B68002BF5D100E000BF0837BD4680BD67
:1017900080B584B000AF78600B46FB707B68132B7C
:1017A00004D103233B73387BFEF7C6FE00BF10371E
:1017B000BD4680BD80B584B000AF06F045F9F86045
:1017C000FB68BB60BB68002B02D0B86804F068FE01
:1017D0003B4600210A461A800A469A7001233B7054
:1017E000BB7843F00203BB7001237B703B460B4A7E
:1017F0001946132006F00AFBF860FB687B607B68E3
:10180000002B02D0786804F04BFE0121132006F073
:101810006DFB00BF1037BD4680BD00BF91170000B3
:1018200080B483B000AF0346FB7100BF0C37BD46E8
:101830005DF8047B70470000F0B5C3B000AF3B46D5
:101840002E4918460EF024FF3B46194600200BF0A7
:10185000C7FF3220FFF786FF4FF080535B6E4FF0DB
:101860000004C7E94034D7E940124FF000034FF0BD
:1018700000040C000023C7E940344FF080531B6E76
:101880004FF00004D7E9401241EA030542EA04069A
:10189000C7E940563846D7E9402319490EF0F8FE0B
:1018A0003B46194600200BF09BFF3220FFF75AFF02
:1018B0004FF080430022C3F800214FF08043012203
:1018C0001A60FEF74DFDFFF775FF0E48FFF71AFC93
:1018D000FFF7C2FA034618460EF096FEFFF77EFCAD
:1018E0000346002B02D0FFF74BFA01E0FFF7CCF8DC
:1018F0000023184607F58677BD46F0BD0C6B010046
:10190000246B01002118000080B483B000AF786020
:10191000FEE71EF0040F0CBFEFF30880EFF3098021
:101920008169004A10470919000000BF80B584B0E2
:1019300000AF78607B68002B0AD0074B43F00103AF
:10194000FB607B689B01BB60FB68B868984700E060
:1019500000BF1037BD4680BDC06C010080B483B0AD
:1019600000AF78604FF0A04318460C37BD465DF8D5
:10197000047B704780B584B000AF7860084611469C
:101980001A460346FB700B46BB7013467B703B1D2B
:101990001846FFF7E3FFF860FA78BB785B001A435C
:1019A0007B789B001A433B7E1B0242EA03013B7F8C
:1019B0001B047A681943FB6802F5E07243F82210B1
:1019C00000BF1037BD4680BD80B584B002AF7860DF
:1019D0000023019300230093002301220121786852
:1019E000FFF7C8FF00BF0837BD4680BD80B584B093
:1019F00002AF78600B46FB70FA7800230193002356
:101A000000931346002200217868FFF7B3FF00BF60
:101A10000837BD4680BD80B584B000AF78603B1DFF
:101A20001846FFF79BFFF8607B68012202FA03F378
:101A30001946F86800F019F800BF1037BD4680BDA0
:101A400080B584B000AF78603B1D1846FFF786FF75
:101A5000F8607B68012202FA03F31946F86800F087
:101A600013F800BF1037BD4680BD80B483B000AF0F
:101A7000786039607B683A68C3F8082500BF0C3786
:101A8000BD465DF8047B704780B483B000AF7860DA
:101A900039607B683A68C3F80C2500BF0C37BD4637
:101AA0005DF8047B704780B582B000AF78607B68DA
:101AB0000433184607F01CFF00BF0837BD4680BD41
:101AC00080B58EB000AFF860B9603B601346FB7123
:101AD00000237B63BB687B61FB79BB613B68FB6177
:101AE00097F840303B62FB68043307F11401002291
:101AF000184608F02FF878637B6B18463837BD46D8
:101B000080BD80B582B000AF78607B68002B0AD0C2
:101B10004FF47A70FFF70AFF7B68013B7B607B68BC
:101B2000002BF5D100E000BF0837BD4680BD80B472
:101B300083B000AF03460A46FB801346BB80BA88D9
:101B4000FB88934228BF13469BB218460C37BD460C
:101B50005DF8047B7047000090B490B000AF3C1D6E
:101B600084E807007B800023BB630023FB864FF4DF
:101B7000A573BB8630237B860023FB620923BB62EF
:101B800000237B6203233B620623FB610023BB61CE
:101B900001237B6102233B617B79012B02D0022B65
:101BA00003D005E0FB6ABB6302E0BB6ABB6300BF16
:101BB000BB79043B302B00F2838001A252F823F062
:101BC000851C0000C11C0000C11C0000C11C0000DD
:101BD000A11C0000C11C0000C11C0000C11C0000B1
:101BE000B91C0000C11C0000C11C0000C11C000089
:101BF000C11C0000C11C0000C11C0000C11C000071
:101C00008B1C0000C11C0000C11C0000C11C000096
:101C1000A91C0000C11C0000C11C0000C11C000068
:101C2000C11C0000C11C0000C11C0000C11C000040
:101C3000C11C0000C11C0000C11C0000C11C000030
:101C4000911C0000C11C0000C11C0000C11C000050
:101C5000B11C0000C11C0000C11C0000C11C000020
:101C6000C11C0000C11C0000C11C0000C11C000000
:101C7000C11C0000C11C0000C11C0000C11C0000F0
:101C8000991C00004023FB861AE08023FB8617E0A6
:101C90004FF48073FB8613E04FF40073FB860FE074
:101CA0004FF48063FB860BE04FF4C063FB8607E0D4
:101CB0004FF40063FB8603E04FF48053FB8600BFC4
:101CC000FB7A012B0BD0022B11D0002B17D1BA6B52
:101CD0007B6A1344BB63FB8E4033FB860FE0BA6B19
:101CE0003B6A1344BB63FB8E0833FB8607E0BA6B89
:101CF000FB691344BB63FB8E0833FB8600BFFB8E7E
:101D0000B96BBA690A44244931F8122002FB03F383
:101D1000FB6397F8483083F00103DBB2002B2BD034
:101D2000BA6B7B6913441C4A32F813301A461346C7
:101D30005B001344DA00D31AFA6B1344FB637B880D
:101D4000DB007B807B8E7988BA8E0A44013A02FBE5
:101D500003F2BB8E92FBF3F39AB27B8813447B8031
:101D60007B88B96B3A690A440B4931F8122002FBAF
:101D700003F3FA6B1344FB63FB6B07EE903AF8EE48
:101D8000E77A9FED067A67EE877AB0EE670A40370A
:101D9000BD4690BC704700BF906C01005F708930F9
:101DA000F0B587B000AF4FF000034FF00004C7E973
:101DB00004343B1D184600F0CEFF0423FB601DE0F9
:101DC000D7E904124FF000034FF00004140244EA74
:101DD00011640B02C7E904343A1DFB6813441B78F5
:101DE000DBB24FF00004D7E9041241EA030542EAEE
:101DF0000406C7E90456FB68013BFB60FB68002B47
:101E0000DEDAD7E90434184621461C37BD46F0BD5A
:101E1000F0B587B000AF4FF000034FF00004C7E902
:101E200004343B1D184600F06DFF0423FB601DE0E9
:101E3000D7E904124FF000034FF00004140244EA03
:101E400011640B02C7E904343A1DFB6813441B7884
:101E5000DBB24FF00004D7E9041241EA030542EA7D
:101E60000406C7E90456FB68013BFB60FB68002BD6
:101E7000DEDAD7E90434184621461C37BD46F0BDEA
:101E800080B584B000AF3B4600221A605A609A6069
:101E9000DA60FF23FB7006233B71CC237B714FF08C
:101EA0008053BB6010233B7014237B701223BB70E4
:101EB000394600230022044808F064F80346184617
:101EC0001037BD4680BD00BF486B010080B582B0B1
:101ED00000AF78607868FFF714FE00BF0837BD4692
:101EE00080BD80B582B000AFFFF7CAFF78607B6825
:101EF0003B603B68002B02D0386804F0D1FA112017
:101F0000FFF762FD1120FFF786FD00211820FFF783
:101F10006DFD01211320FFF769FD00BF0837BD46A5
:101F200080BD000080B500AF0C48FFF7BCFD00216C
:101F30001120FFF75BFD00211020FFF757FD002166
:101F40001220FFF753FD00211420FFF74FFD044B33
:101F50000022C3F8002500BF80BD00BF486B010010
:101F60000030004080B500AF1820FFF72DFD18208D
:101F7000FFF766FD0220FFF7C4FD00211820FFF7E0
:101F800035FD00BF80BD000080B584B000AF1148B2
:101F9000FFF789FD3B4600221A605A609A60DA60BA
:101FA000FF23FB7006233B71CC237B714FF08053E2
:101FB000BB6010233B7014237B701223BB70394627
:101FC00000230022034807F0DDFF00BF1037BD46A5
:101FD00080BD00BF486B010080B584B000AF1148E0
:101FE000FFF761FD3B4600221A605A609A60DA6092
:101FF000FF23FB7006233B71CC237B714FF0004322
:10200000BB6010233B7014237B701223BB703946D6
:1020100000230022034807F0B5FF00BF1037BD467C
:1020200080BD00BF486B010080B582B000AF0023C7
:10203000FB71FB1D184604F0DDFEFB7918460837DE
:10204000BD4680BD80B582B000AF78607B68DBB2F2
:10205000184604F0D9FE00BF0837BD4680BD000019
:1020600090B5CBB002AF044607F108000160391DFE
:102070000A603A46136007F10E0322461A80FFF702
:10208000D3FF034687F81B311120FFF7D9FC07F176
:102090000E031B88DAB207F1080100230093334BCB
:1020A00009683348FFF70CFDC7F81401D7F814315D
:1020B000002B0BD007F114032E4918460EF0E8FA56
:1020C00007F11403194600200BF08AFB3B1D1B6827
:1020D000C7F81C3137E0D7F81C313A1D1268D31A03
:1020E0003A461268D418D7F81C319BB2FF21184623
:1020F000FFF71DFD0346DAB2002300931B4B214678
:102100001B48FFF7DDFCC7F81401D7F81431002B8A
:102110000BD007F11403184918460EF0B9FA07F16D
:102120001403194600200BF05BFBD7F81C319BB25F
:10213000FF211846FFF7FBFC03461A46D7F81C316F
:102140009B1AC7F81C31D7F81C31002BC3DC1120B7
:10215000FFF761FC97F81B311846FFF773FF002368
:10216000184607F59277BD4690BD00BF540C00207D
:10217000486B0100586B01007C6B0100B0B5CAB020
:1021800002AF044607F108000160391D0A603A46B3
:10219000136007F10E0322461A80FFF745FF03463E
:1021A00087F81B311120FFF74BFC07F10E031B884A
:1021B000DAB207F10E031B88DBB207F108010093C6
:1021C000374B09683748FFF77BFCC7F81401D7F88D
:1021D0001431002B0BD007F11403334918460EF0CD
:1021E00057FA07F11403194600200BF0F9FA3B1DCA
:1021F0001B68C7F81C3140E0D7F81C319BB2FF21A7
:102200001846FFF794FC0346DCB2D7F81C313A1DA0
:102210001268D31A3A461268D518D7F81C319BB207
:10222000FF211846FFF783FC0346DBB200932B46E1
:1022300022461B491B48FFF743FCC7F81401D7F897
:102240001431002B0BD007F11403184918460EF077
:102250001FFA07F11403194600200BF0C1FAD7F852
:102260001C319BB2FF211846FFF761FC03461A465A
:10227000D7F81C319B1AC7F81C31D7F81C31002B3A
:10228000BADC1120FFF7C7FB97F81B311846FFF7A0
:10229000D9FE0023184607F59077BD46B0BD00BFB4
:1022A000540C0020486B01009C6B0100C46B0100C2
:1022B00080B483B000AF0346FB8000BF0C37BD463F
:1022C0005DF8047B704780B500AF002001F005FF8A
:1022D00000BF80BD80B500AF01F046FE00BF80BDED
:1022E00080B500AF024800F097FA00BF80BD00BF84
:1022F0000400002080B400AF034B1B881846BD4685
:102300005DF8047B704700BF500C002080B5ADF530
:10231000187D00AFFFF738FE3B1D4FF416711846CD
:1023200001F012FAC7F85C02FFF756FED7F85C32EC
:10233000184607F51877BD4680BD000080B5C8B0C7
:1023400000AFFFF7CEFDFFF7E1FFFFF70BFEFFF752
:102350001BFE012000F0E8F8C7F81C01FFF73CFE67
:10236000FFF7BEFF00F038FAC7F818013B46D7F870
:1023700018214D4918460EF08BF93B4619460020AE
:102380000BF02EFAD7F81C31B3F1FF3F0BD13B46CF
:10239000464918460EF07CF93B46194600200BF0E2
:1023A0001FFA01237AE0424B1B881A463B464149FB
:1023B00018460EF06DF93B46194600200BF010FA56
:1023C000032001F067FC002000F090FB002000F0EB
:1023D0009DFB8C2001F0B0FA002001F0C1FE00202E
:1023E00001F02CFA952387F800314FF05F33C7F8DE
:1023F000043107F58073184600F0F7F90021042036
:1024000000F06CFD0346C7F814313B46D7F81421A1
:10241000294918460EF03CF93B46194600200BF0BE
:10242000DFF90121254801F0EAFE00210E2000F02D
:1024300055FD0346C7F810313B46D7F81021204917
:1024400018460EF025F93B46194600200BF0C8F956
:102450000B212A2000F086FD034687F80F3197F8FC
:102460000F213B46174918460EF012F93B46194614
:1024700000200BF0B5F900211E2000F02FFDC7F859
:1024800008013B46D7F808210F4918460EF000F91D
:102490003B46194600200BF0A3F90023184607F528
:1024A0009077BD4680BD00BFDC6B0100FC6B010076
:1024B000500C00201C6C01003C6C010080D03324C7
:1024C000546C0100686C01007C6C010080B582B026
:1024D00000AFFFF733FF78607B68002B01D07B688B
:1024E00000E0002318460837BD4680BD80B483B0A5
:1024F00000AF78607B68002B02D14FF0FF3309E01A
:102500007A681346DB009B1ADB00054A1344054A30
:102510001360002318460C37BD465DF8047B7047F6
:10252000541000201000002090B587B000AF034683
:10253000FB800023FB8200233B61564B1B6800227B
:102540005A74544B1B6800229A76524B1B68002227
:102550001A83504B1B6800229A624E4B1B68002264
:10256000DA624C4B1B6800221A634A4B1B6800223C
:102570005A6300F031F90246474B9A4202D04FF0BD
:10258000FF3382E001F006FF002001F0DFFB0422B0
:102590000021242000F0F9FC1E2000F0E0FD03469D
:1025A000FB82FB8A1B0A9AB23A4B1B68D2B25A7260
:1025B000042000F0D4FD38613B69DBB2002B0DD064
:1025C000022212212D2000F0E0FC324B1B681A8BF6
:1025D000304B1B6842F4805292B21A832D4B1C6818
:1025E000062000F0BCFD034623602A4B1C68072030
:1025F00000F0B5FD03466360FB8ADAB2254B1B6829
:1026000002F01F02D2B21A74224B1B681B7C002BF3
:1026100003D1204B1B6810221A741E4B1B681B7CB5
:10262000184601F0DDFEFB8803F00103002B0BD000
:1026300001F0D2F8174B1B681A8B164B1B6842F43B
:10264000006292B21A830FE00521362000F06DFC83
:102650000346FB81FB8923F40073FB81FB891A4647
:102660000521362000F0A4FC012001F06FFB0022C0
:102670000A212C2000F089FC064B1C680021042054
:1026800000F02CFC03466361002318461C37BD464E
:1026900090BD00BF100000203001CADE80B400AF42
:1026A000034B1B685B7A1846BD465DF8047B704798
:1026B0001000002080B582B000AF78607B68002BEE
:1026C00006D040F674322621362000F071FC04E07A
:1026D00000222621362000F06BFC00BF0837BD46E3
:1026E00080BD80B584B000AF7860396000212620BD
:1026F00000F0F4FBF860FB6823F47C23FB607B684C
:10270000002B03D0FB6843F48023FB603B68002B65
:1027100003D0FB6843F4A033FB60FA680021262055
:1027200000F062FC00BF1037BD4680BD80B584B0AC
:1027300000AF786039603A687B681343FB60FB68E0
:10274000DBB23B72FB681B0ADBB27B72FB681B0CC3
:10275000DBB2BB7207F1080303220821262000F038
:1027600008FB00BF1037BD4680BD80B584B000AF08
:10277000786039603A687B681343FB60FB68DBB2C2
:102780003B72FB681B0ADBB27B72FB681B0CDBB283
:10279000BB7207F1080303220C21262000F0E9FA9E
:1027A00000BF1037BD4680BD80B400AF034B1B682F
:1027B0001B681846BD465DF8047B7047100000207A
:1027C00080B400AF034B1B685B681846BD465DF8DC
:1027D000047B70471000002080B500AF002100206E
:1027E00000F07CFB0346184680BD80B582B000AF88
:1027F00078607B681B781A460B212A2000F0C5FB05
:102800007B685B681A4600211E2000F0EDFB00BFCC
:102810000837BD4680BD000080B586B000AF786047
:102820000023FB750023BB757B681B78FB747B68FA
:102830005B791A46A14B33F81230BB827B685B7818
:10284000013BBB74FB7C042B02D0FB7C072B01D12A
:10285000012300E000237B747B68DB79002B0BD124
:10286000974B1B685A69964B1B6842F480025A6169
:10287000BB8ADB08BB8207E0914B1B685A69904B0F
:102880001B6822F480025A618D4B1B687A68127AA9
:102890001A728B4B1B685A69894B1B6822F44032B1
:1028A0005A61874B1B6859697B681B7A1B0403F4C8
:1028B0004032834B1B680A435A61814B1B685B693A
:1028C0001A460021042000F08FFBBB8A1A4642F60C
:1028D00004012E2000F06CFBBB7C184600F05CFF6E
:1028E000FB7C784AD35C1A46774B53F822301A4661
:1028F00007212B2000F078FBFB7C724AD35C1A4640
:10290000724B9B5C1A460B212B2000F03EFB7B7C1C
:102910006F4AD35C1A460B21282000F036FBFB7C63
:10292000684AD35C1A466B4B53F822301A460C2186
:10293000282000F059FB7B68DB7918467B689B797F
:102940001946654A43000B4432F813301A460221F7
:10295000272000F02DFBBB7C604A32F813301A466A
:102960000421272000F024FB7B68DB79002B05D1B4
:1029700064220621272000F01BFB18E07B689B786F
:10298000042B0AD110220621272000F011FB10226F
:102990002621272000F0F9FA09E02022062127202D
:1029A00000F006FB28222621272000F0EEFABB7C4F
:1029B0007A68D27811464A4A9B000B4452F8233079
:1029C0001A460821272000F00FFB7B685B89002B4B
:1029D00003D17B6841F241025A817B685B891A46C8
:1029E0002021272000F0E4FA3E4B1B681A460C21F8
:1029F000232000F0F9FABB7C3A4A5B0013449B8821
:102A00001A460421232000F0D3FA7B689B79002B1F
:102A10000DD07B68DB791A46334B9B5C1A4600214C
:102A2000212000F0B2FA0323FB750123BB75FB7C68
:102A300003F00F02FB7C1B01DBB21A437B685B785F
:102A40009B0403F440231A43FB7D1B0503F440134E
:102A50001A43BB7D5B0403F400331A437B681B7984
:102A60009B0503F0F86313437A685279D206134347
:102A7000FB60FA6800211F2000F0B6FA7B689A78A4
:102A80007B685B781343DBB21A047B68DB795B03FA
:102A90001A430B4B1B68DA60094B1B68DB681A464C
:102AA0000021082000F0A0FA422200210D2000F0B1
:102AB0006CFA00BF1837BD4680BD00BF486D0100ED
:102AC00010000020C86C0100E86C0100006D0100DE
:102AD000086D0100D06C0100186D0100246D01002B
:102AE000286D01000C6D0100146D010080B582B0ED
:102AF00000AF0346FB80FB881A4641F604012E20F6
:102B000000F056FA00BF0837BD4680BD80B582B0E0
:102B100000AF0346FB80FB881A460021182000F016
:102B200047FA00BF0837BD4680BD80B582B000AF10
:102B300003463960FB801346BB80BA88FB88134488
:102B4000B3F5806F09DCFB88023B1A46B9883B6805
:102B5000092000F00EF9002301E04FF0FF33184682
:102B60000837BD4680BD000080B584B000AF034685
:102B70003A60FB800B46BB800A4B1B68DA68FB8817
:102B80001343BA88920513433A68D2031343FB6098
:102B9000FA680021082000F027FA00BF1037BD4670
:102BA00080BD00BF1000002080B582B000AF78600B
:102BB0000B467B8013463B807A8839887B681120DE
:102BC00000F033F900BF0837BD4680BD80B582B044
:102BD00000AF78600B467B8013463B80072001F0F6
:102BE000B5F87A8839887B68252000F01EF908201E
:102BF00001F0ACF800BF0837BD4680BD80B584B099
:102C000000AF0023FB603B1D03222821272000F09A
:102C10000CF90223BB600AE0FB681B02391DBA688D
:102C20000A4412781344FB60BB68013BBB60BB687D
:102C3000002BF1DAFB6803F48013002B06D0FB684D
:102C40006FEA03336FEA1333FB6003E0FB68C3F3FF
:102C50001403FB60FB6818461037BD4680BD80B585
:102C600082B000AF78600521152000F05EF90346C0
:102C70001A467B68DA8100212E2000F056F90346BF
:102C80001A467B681A807B680433082200211220D0
:102C900000F0CBF80721152000F047F903461A464B
:102CA0007B685A800021102000F018F903461B0DA4
:102CB0009BB2C3F30B039AB27B689A8100BF0837BB
:102CC000BD4680BD80B582B000AF78607B680522CC
:102CD0000021172000F0A9F800BF0837BD4680BDCD
:102CE00080B500AF0121172000F0F8F80346184620
:102CF00080BD80B500AF0021172000F0EFF803463B
:102D0000184680BD80B582B000AF78607B68052230
:102D10000021152000F089F800BF0837BD4680BDAE
:102D200080B500AF0121152000F0D8F80346184601
:102D300080BD80B500AF0021152000F0CFF803461C
:102D4000184680BD80B500AF0121062000F0C6F80E
:102D50000346184680BD80B582B000AF78607B68BE
:102D600005220021062000F060F800BF0837BD46AC
:102D700080BD80B586B000AFBA607B600346FB8142
:102D80000B46BB8100237B61BB89002B0DD1FB89E6
:102D9000DAB27B69591C796162F07F02D2B207F125
:102DA00018010B4403F8082C33E0FB89DAB27B6985
:102DB000591C796162F03F02D2B207F118010B444D
:102DC00003F8082CBB897F2B0AD87B695A1C7A61CF
:102DD000BA89D2B207F118010B4403F8082C18E0A5
:102DE000BB89DAB27B69591C796162F07F02D2B289
:102DF00007F118010B4403F8082CBB89DB0999B2D1
:102E00007B695A1C7A61CAB207F118010B4403F8B6
:102E1000082C7B6998B207F110017B68BA68FFF74C
:102E20001FF900BF1837BD4680BD80B586B000AF22
:102E3000BA607B600346FB810B46BB8100237B614C
:102E4000BB89002B0AD17B695A1C7A61FA89D2B2FC
:102E500007F118010B4403F8082C33E0FB89DAB2C0
:102E60007B69591C796142F04002D2B207F1180126
:102E70000B4403F8082CBB897F2B0AD87B695A1CAA
:102E80007A61BA89D2B207F118010B4403F8082C11
:102E900018E0BB89DAB27B69591C796162F07F0264
:102EA000D2B207F118010B4403F8082CBB89DB09E7
:102EB00099B27B695A1C7A61CAB207F118010B44B6
:102EC00003F8082C7B6998B207F110017B68BA6897
:102ED000FFF754F900BF1837BD4680BD80B586B0F6
:102EE00000AF7860396000237B617B6898B23B68F3
:102EF00099B207F10C030422FFF797FF03233B610C
:102F00000BE07B691B0207F10C013A690A44127855
:102F100013447B613B69013B3B613B69002BF0DA69
:102F20007B6918461837BD4680BD80B584B000AFB8
:102F3000786039600023FB817B6898B23B6899B266
:102F400007F10C030222FFF770FF7B7B9BB21B0291
:102F50009AB23B7B9BB21344FB81FB891846103726
:102F6000BD4680BD80B584B000AF786039607B68B5
:102F700098B23B6899B207F10F030122FFF755FFA2
:102F8000FB7B18461037BD4680BD80B584B000AFCE
:102F9000F860B9601346FB71FB6898B2BB6899B2E0
:102FA000FB1D0122FFF7E5FE00BF1037BD4680BDC7
:102FB00080B586B000AFF860B9601346FB80FB882F
:102FC000DBB23B75FB881B0A9BB2DBB27B75FB68EF
:102FD00098B2BB6899B207F114030222FFF7C9FE49
:102FE00000BF1837BD4680BD80B586B000AFF86021
:102FF000B9607A6000237B610DE07B68D9B207F18C
:1030000010027B6913440A461A707B681B0A7B60B6
:103010007B6901337B617B69032BEEDDFB6898B232
:10302000BB6899B207F110030422FFF7A2FE00BFAC
:103030001837BD4680BD000080B584B000AF0346A0
:10304000FB8000210420FFF749FF034623F07B6348
:1030500023F40023FB60FB88002B0CD0FB6823F4D7
:10306000FF73FB60FB8803F4FF72FB68134343F0BC
:103070000103FB6003E0FB6823F00103FB60064BE8
:103080001B68FA685A61FA6800210420FFF7ACFF58
:1030900000BF1037BD4680BD1000002080B582B053
:1030A00000AF0346FB80FB881A4602210320FFF78E
:1030B0007FFF00BF0837BD4680BD80B582B000AF3E
:1030C0000346FB80FB881A4600210320FFF770FFB0
:1030D00000BF0837BD4680BD80B582B000AF7860C4
:1030E0007B68082200210120FFF743FE00BF08375C
:1030F000BD4680BD80B582B000AF78607B68082295
:1031000000210120FFF791FE00BF0837BD4680BDBA
:1031100090B587B000AFF860B9601346FB7100202E
:1031200000F014FE00237B610EE07A69FB68D11881
:103130007B699B00BA68D418084600F010F8034673
:1031400023607B6901337B61FB797A699A42ECDB0E
:10315000012000F0FBFD00BF1C37BD4690BD80B5CF
:1031600084B000AF78607B689BB21A4604212D20A2
:10317000FFF71EFF032206212D20FFF706FF002286
:1031800006212D20FFF701FF0A212D20FFF7A6FEC3
:10319000F860FB6818461037BD4680BD80B588B022
:1031A00000AF78600023FB610023BB6100237B61DB
:1031B00003233B7307F10C03012207212D20FFF7A6
:1031C000D8FD7B6803F00F03052B3FD801A252F80E
:1031D00023F000BFED310000FB3100000D32000094
:1031E0001F320000313200003F32000000237B61BB
:1031F0000023FB610023BB612BE041F224037B61D0
:1032000049F22023FB610E23BB6122E041F6240337
:103210007B6149F22023FB610323BB6119E041F686
:1032200024037B6149F22023FB614E23BB6110E044
:1032300000237B610023FB610323BB6109E024239E
:103240007B610023FB610323BB6102E04FF0FF338E
:10325000EFE0FB69DBB23B73FB691B0ADBB27B73FC
:1032600007F10C03022200212D20FFF782FD082325
:103270003B7307F10C03012206212D20FFF779FD96
:1032800002233B7307F10C03012207212D20FFF7D6
:1032900070FD88233B7307F10C03012206212D20CA
:1032A000FFF767FD80233B7307F10C030122062122
:1032B0002D20FFF75EFD00233B7307F10C03012275
:1032C00006212D20FFF755FD05233B7307F10C0365
:1032D000012207212D20FFF74CFDBB69DBB23B73B8
:1032E000BB691B0ADBB27B7307F10C0302220021CE
:1032F0002D20FFF73EFD08233B7307F10C0301224D
:1033000006212D20FFF735FD04233B7307F10C0345
:10331000012207212D20FFF72CFD88233B7307F1A5
:103320000C03012206212D20FFF723FD80233B7390
:1033300007F10C03012206212D20FFF71AFD0023BF
:103340003B7307F10C03012206212D20FFF711FD2D
:1033500001233B7307F10C03012207212D20FFF706
:1033600008FD7B69DBB23B737B691B0ADBB27B73B5
:1033700007F10C03022200212D20FFF7FAFC08239D
:103380003B7307F10C03012206212D20FFF7F1FC0E
:103390000A20FEF79BFD00233B7307F10C0301227B
:1033A00007212D20FFF7E5FC01233B7307F10C03F8
:1033B000012206212D20FFF7DCFC02233B7307F1DD
:1033C0000C03012207212D20FFF7D3FC04233B73BC
:1033D00007F10C03012207212D20FFF7CAFC64200E
:1033E000FEF774FD00233B7307F10C030122072154
:1033F0002D20FFF7BEFC00233B7307F10C030122D5
:1034000006212D20FFF7B5FC0A20FEF75FFD7B6843
:1034100003F00F03012B04D07B6803F00F03022B92
:1034200006D107F11003012208212D20FFF7FDFC32
:10343000002318462037BD4680BD00BF80B584B04C
:1034400000AF78600B467B8007F10C030122082156
:103450002D20FFF7EAFC3B7B03F00203002B02D197
:103460004FF0FF3351E07B681B0EDBB2FB727B68D1
:103470001B0CDBB2BB727B681B0ADBB27B727B6806
:10348000DBB23B7207F10803042200212D20FFF775
:1034900070FC7B881B0A9BB2DBB203F00703DBB234
:1034A0007B727B88DBB23B7207F1080302220421A6
:1034B0002D20FFF75EFC40233B7207F10803012239
:1034C00006212D20FFF755FC00233B7207F108036E
:1034D000012206212D20FFF74CFC0023FB7310E096
:1034E0000120FEF7F3FC07F10C03012208212D2037
:1034F000FFF79BFC3B7B03F00103002B01D0012372
:10350000FB73FB7B002BEBD0002318461037BD4626
:1035100080BD80B584B000AF78600B467B8000230F
:10352000FB600023BB60002000F010FC0120FFF7CF
:1035300035FE7B8819467868FFF780FF7B88184640
:10354000FFF70DFE02467B68934206D0BB6801334D
:10355000BB60BB68052B02D0EBE700BF00E000BFFB
:103560000420FFF71BFE7B881846FFF7F8FD024694
:103570007B68934202D04FF0FF33FB600020FFF7DF
:103580000DFEFB6818461037BD4680BD80B500AF04
:10359000042202212C20FFF7F8FC002202212C201B
:1035A000FFF7F3FC00BF80BD80B500AF0022022111
:1035B0002C20FFF7EAFC022202212C20FFF7E5FC79
:1035C00000BF80BD80B500AFFFF7EEFF00BF80BD3C
:1035D00080B582B000AF0346FB80002000F0B6FB50
:1035E000002206212C20FFF7D0FC00220A212C20EB
:1035F000FFF7CBFCFFF7CAFFFB881A4608212C20F7
:10360000FFF7D6FCFFF7C2FF01220A212C20FFF7AB
:10361000BCFCFFF7BBFF012000F098FB00BF0837A0
:10362000BD4680BD80B582B000AF04220A212C20A7
:10363000FFF7ABFCFFF7AAFF00220A212C20FFF7BF
:10364000A4FCFFF7A3FF002000F080FB0120FEF7A1
:103650003DFC762204212C20FFF797FC80220221DA
:103660002C20FFF792FC882202212C20FFF78DFCF2
:1036700003212C20FFF776FC0346FB80FB881B020E
:10368000FB80752204212C20FFF77FFC8022022181
:103690002C20FFF77AFC882202212C20FFF775FCF2
:1036A00003212C20FFF75EFC03469AB2FB881343EC
:1036B000FB80002202212C20FFF767FC012000F094
:1036C00045FBFB8818460837BD4680BD80B582B0F3
:1036D00000AF03460A46FB8013467B710A4B1B680A
:1036E0001A8BFB881343FB80FB881A4600212C2091
:1036F000FFF75EFC7B791A4606212C20FFF745FC7C
:1037000000BF0837BD4680BD1000002080B584B0E2
:1037100000AF786004213620FFF7E0FBF8607B689B
:10372000002B04D0FB6843F40063FB6003E0FB68FC
:1037300023F40063FB60FA6804213620FFF754FC91
:1037400000BF1037BD4680BD80B582B000AF786045
:103750000B467B80FFF740F802460E4B9A420FD093
:103760007A887B6800210020FFF75FFB0520FEF7C9
:10377000ADFBFFF731F80246064B9A4205D001E057
:10378000002303E04FF0FF3300E000231846083722
:10379000BD4680BD3001CADE80B582B000AF786022
:1037A0006D2240F606012E20FFF7EFFB7B68002B11
:1037B00007D040F2076241F606012E20FFF7F8FB22
:1037C00006E041F2076241F606012E20FFF7F0FB0A
:1037D00000BF0837BD4680BD80B500AF0E2000F0A9
:1037E000B5FA4FF4004206212D20FFF7E1FB01203E
:1037F000FEF76CFB012000F0A9FA00BF80BD80B588
:1038000084B000AF0346FB71FB795B011BB203F090
:1038100060031BB243F001031BB2FB810E2000F0DA
:1038200095FAFB891A4612212D20FFF7C1FB0120D2
:1038300000F08CFA00BF1037BD4680BD90B583B054
:1038400000AF7860134B1C6800210420FFF746FB93
:10385000034663617B68002B08D00E4B1B685A69D6
:103860000C4B1B6822F480225A6107E0094B1B684D
:103870005A69084B1B6842F480225A61054B1B6849
:103880005B691A4600210420FFF7AEFB00BF0C372E
:10389000BD4690BD1000002080B582B000AF034649
:1038A000FB71FB791A4603211A20FFF76EFB0A4BC6
:1038B0001B685A69084B1B6842F080425A61064BEC
:1038C0001B685B691A4600210420FFF78DFB00BFCF
:1038D0000837BD4680BD00BF1000002080B582B013
:1038E00000AF78607B68002B0CD0124B1B685A69C4
:1038F000104B1B6822F480525A610E4B1B68012248
:103900005A740BE00B4B1B685A690A4B1B6842F454
:1039100080525A61074B1B6800225A74054B1B6882
:103920005B691A4600210420FFF75EFB00BF0837E1
:10393000BD4680BD1000002080B584B000AF786027
:1039400000211A20FFF7CAFAF860FB681B0D1B055F
:10395000FB607B68C3F31303FA681343FB60FA68E8
:1039600000211A20FFF740FB00BF1037BD4680BD85
:1039700080B485B000AFF860B9607A603B600B4BF3
:103980001B68FA689A62094B1B68BA68DA62074BCF
:103990001B687A681A63054B1B683A685A6300BF54
:1039A0001437BD465DF8047B704700BF100000204F
:1039B00080B500AF00210F20FFF7D4FA034603F0D3
:1039C0000103DBB2184680BD90B585B000AF724BE5
:1039D0001C6800210F20FFF781FA0346E361E369C9
:1039E000BB60BB6803F48043002B6DD04FF4DE4214
:1039F00000210F20FFF7F8FA674B1B68002283F8BD
:103A0000242000211020FFF790FA0346FB80FB885A
:103A1000C3F30903FB81604B1B681B7A002B03D1A6
:103A2000FB8903F07F03FB815B4B1B68FA891A84D7
:103A3000B7F90630002B0ADA574B1B6893F824209D
:103A4000554B1B6842F00102D2B283F82420524B3E
:103A50001B682233022200211120FFF7E6F9BB6820
:103A600003F00803002B18D04B4B1B6893F822304F
:103A700003F02003002B10D1082200210F20FFF7B4
:103A8000B3FA454B1B68DA69434B1B6822F0080206
:103A9000DA61414B1B6800229A763F4B1B68DB6A58
:103AA000002B07D03C4B1B68DB6A3B4A12681C3278
:103AB00010469847384B1B685B7C002B04D00122D2
:103AC00003210D20FFF761FABB6803F08003002B90
:103AD0001FD0F82200210F20FFF786FABB6803F001
:103AE0000803002B08D02C4B1B689B7E002B03D0B7
:103AF00000F03AFA00F03FFC274B1B689B6A002B52
:103B000007D0254B1B689B6A234A12681C3210465B
:103B10009847BB6803F40813002B1AD04FF4003207
:103B200000210F20FFF760FA1B4B1B6800229A76DA
:103B300000F01AFA00F01FFC174B1B681B6B002BE0
:103B400007D0154B1B681B6B134A12681C321046BA
:103B50009847BA68114B1340002B19D00F4A002127
:103B60000F20FFF741FA0C4B1B6800229A7600F0F9
:103B7000FBF900F000FC084B1B685B6B002B07D0C7
:103B8000054B1B685B6B044A12681C321046984751
:103B900000BF1437BD4690BD1000002000900524E2
:103BA00090B585B000AF3A4B1C6800210F20FFF79D
:103BB00095F90346E361E369BB60002000F060FA19
:103BC0004FF4DE4200210F20FFF70EFA304B1B6846
:103BD000002283F8242000211020FFF7A6F90346D5
:103BE000FB80FB88C3F30903FB81294B1B681B7A0D
:103BF000002B03D1FB8903F07F03FB81244B1B685F
:103C0000FA891A84B7F90630002B0ADA204B1B68B0
:103C100093F824201E4B1B6842F00102D2B283F8B5
:103C200024201B4B1B682233022200211120FFF7A6
:103C3000FCF8BB6803F00803002B18D0144B1B687A
:103C400093F8223003F02003002B10D1082200212A
:103C50000F20FFF7C9F90E4B1B68DA690C4B1B6884
:103C600022F00802DA610A4B1B6800229A76084BA0
:103C70001B68DB6A002B07D0054B1B68DB6A044A14
:103C800012681C321046984700BF1437BD4690BDDD
:103C90001000002080B584B000AF0346FB71FB79B3
:103CA00003F00103002B3FD000212620FFF716F977
:103CB000F860FB6823F47053FB60FB6843F4A05387
:103CC000FB60FA6800212620FFF78EF900213620DC
:103CD000FFF704F9F860FB6843F40403FB60FA683B
:103CE00000213620FFF780F94FF48873FB60FB79E1
:103CF00003F00203002B03D0FB6843F47023FB6046
:103D0000FA6828213620FFF76FF9FB7903F00203E8
:103D1000002B17D0FB6823F47023FB60FA6828217E
:103D20003620FFF761F90DE000212620FFF7D6F8D5
:103D3000F860FB6823F47053FB60FA6800212620CA
:103D4000FFF752F900BF1037BD4680BD80B584B083
:103D500000AF786007F10C03022200213620FFF744
:103D600064F87B680E2B76D801A252F823F000BFCE
:103D7000BD3D0000AD3D0000D33D0000573E0000BA
:103D8000573E0000573E0000573E0000E93D00004E
:103D9000093E0000573E0000573E00001F3E000055
:103DA0002B3E0000373E00004D3E000000233B73D9
:103DB0007B7B23F00103DBB27B734DE03B7B5BB28B
:103DC00023F003035BB243F001035BB2DBB23B734E
:103DD00042E03B7B5BB223F003035BB243F00203A0
:103DE0005BB2DBB23B7337E03B7B5BB223F04C034F
:103DF0005BB243F048035BB2DBB23B737B7B63F0A7
:103E00007F03DBB27B7327E03B7B23F04C03DBB209
:103E10003B737B7B03F07F03DBB27B731CE07B7B1C
:103E200043F00203DBB27B7316E07B7B23F00203DB
:103E3000DBB27B7310E03B7B5BB223F030035BB201
:103E400043F020035BB2DBB23B7305E001233B731D
:103E500003237B7300E000BF07F10C030122002164
:103E60003620FEF786FF07F10C0301330122012102
:103E70003620FEF77EFF00BF1037BD4680BD00BF75
:103E800080B500AF0020FFF761FF0022042136203B
:103E9000FFF78EF800BF80BD80B582B000AF7860BC
:103EA0007A6801210A20FFF79FF800BF0837BD4656
:103EB00080BD000080B584B000AF0346FB710023D5
:103EC000FB600023FB7200233B81FB7903F00203BC
:103ED000002B0BD08023FB72FB7A1A4600210D20A9
:103EE000FFF753F81F4B1B6801229A76FB7903F00A
:103EF0000103002B27D0FB7A43F00603FB72FB7A09
:103F00001A4600210D20FFF740F803210F20FFF78C
:103F10000CF803463B813B8903F48163002B02D1FB
:103F20000023FB6019E04023FB72FB7A1A46002154
:103F30000D20FFF72AF80B4B1B6800229A764FF0F2
:103F4000FF33FB6009E0FB7A43F00203FB72FB7A6C
:103F50001A4600210D20FFF718F8FB6818461037A5
:103F6000BD4680BD1000002080B582B000AF0021AA
:103F70000E20FEF7B3FF7860FEF756F83860002297
:103F800000210E20FFF730F8402200210D20FEF71F
:103F9000FCFF0B4A00210F20FFF726F800F014F871
:103FA0007A6800210E20FFF71FF83868FEF74AF8FC
:103FB000044B1B6800229A7600BF0837BD4680BDBF
:103FC000F8FF27241000002080B582B000AF032145
:103FD0000F20FEF7C7FF0346FB71FA79FB795B0000
:103FE000534003F08003002B04D0012203210D2055
:103FF000FEF7CBFF00BF0837BD4680BD80B584B05B
:1040000000AF78600B46FB701346BB707B68002BDB
:104010001FD0BB781B021AB2FB781BB213431BB232
:104020009BB223F0F003FB81FB891A4600211D207F
:10403000FEF7BEFF00213620FEF750FFB860BB68D8
:1040400043F08073BB60BA6800213620FEF7CCFFD6
:1040500012E0002200211D20FEF7AAFF00213620D9
:10406000FEF73CFFB860BB6823F08073BB60BA68A2
:1040700000213620FEF7B8FF00BF1037BD4680BDD7
:1040800080B584B000AF786004213620FEF726FFAB
:10409000F8607B68002B04D0FB6843F44053FB605E
:1040A00003E0FB6823F44053FB60FA6804213620E8
:1040B000FEF79AFF00BF1037BD4680BD80B582B0C5
:1040C00000AF0346FB71FB791A460C213620FEF740
:1040D0005CFF00BF0837BD4680BD80B584B000AF2F
:1040E00078607B6803F00403002B01D1FFF76CFFBD
:1040F0004FF48073FB817B6803F00103002B03D036
:10410000FB8943F40073FB81FB891A4600210D20D3
:10411000FEF74EFF7B6803F00103002B1AD003214A
:104120000F20FEF71FFF03467B737B7B03F0080322
:10413000002B0FD0FFF718FF7B6803F00203002B62
:1041400005D14FF4807200210D20FEF731FF4FF0B2
:10415000FF3300E0002318461037BD4680BD000045
:1041600080B584B000AF0346FB8003210420FEF736
:10417000F9FE0346FB73FB88002B18D0FB881A4618
:1041800000210C20FEF714FFFB7B43F01003FB73B0
:10419000124B1B685A69114B1B6842F080525A61DE
:1041A000FB7B1A4603210420FEF7EFFE11E0FB7BA8
:1041B00023F01003FB73094B1B685A69074B1B68FC
:1041C00022F080525A61FB7B1A4603210420FEF73D
:1041D000DCFE00BF1037BD4680BD00BF10000020D0
:1041E00080B582B000AF0346FB80FB881A462421CD
:1041F0002720FEF7DDFE00BF0837BD4680BD80B535
:1042000084B000AF78600B46FB70FDF70DFFB8601F
:1042100000210E20FEF762FEF860FB78002B04D030
:10422000FA687B681343FB6004E07B68DB43FA6851
:104230001340FB60FA6800210E20FEF7D5FEB86837
:10424000FDF700FF00BF1037BD4680BD80B582B0CE
:1042500000AF7860022200212F20FEF796FE7B68D7
:10426000002B04D0012200212F20FEF78EFE00BF7C
:104270000837BD4680BD80B584B000AF78600421AA
:104280002F20FEF72BFEF860FB689BB2C3F30B03F5
:104290009AB27B681A80FB681B0C9BB2C3F30B03BA
:1042A0009AB27B685A8008212F20FEF717FEF8602B
:1042B000FB689BB2C3F30B039AB27B689A80FB68DE
:1042C0001B0C9BB2C3F30B039AB27B68DA800C2100
:1042D0002F20FEF703FEF860FB689BB2C3F30B03CD
:1042E0009AB27B681A81FB681B0C9BB2C3F30B0369
:1042F0009AB27B685A8110212F20FEF7EFFDF860FB
:10430000FB681B0C9BB2C3F30B039AB27B68DA8188
:10431000FB689BB2C3F30B039AB27B689A811421AA
:104320002F20FEF7DBFDF860FB681B0C9BB2C3F38C
:104330000B039AB27B685A82FB689BB2C3F30B03F0
:104340009AB27B681A8218212F20FEF7C7FDF86009
:10435000FB689BB2C3F30B039AB27B689A82FB683B
:104360001B0C9BB2C3F30B039AB27B68DA8200BFCB
:104370001037BD4680BD80B500AFE0220321362056
:10438000FEF703FEF02203213620FEF7FEFD00BFFC
:1043900080BD000080B500AFFFF772FD0022002154
:1043A0002C20FEF705FE002206212C20FEF7EDFD55
:1043B000FFF7FAF8002203213620FEF7E6FD012080
:1043C000FDF784FDF02203213620FEF7DEFD034BCE
:1043D0001B6800229A7600BF80BD00BF100000203D
:1043E00080B584B000AF0346FB7197F9073003F046
:1043F0001F035BB243F060035BB2FB73FB7B1A46A7
:104400000E212B20FEF7C1FD00BF1037BD4680BD39
:1044100080B400AF034B1B681B7C1846BD465DF89B
:10442000047B70471000002080B582B000AF0346C7
:10443000FB71FFF725FDFB79214AD35C1A46214B1E
:1044400053F822301A4607212B20FEF7CDFDFB79C9
:104450001B4AD35C1A461C4B9B5C1A460B212B2033
:10446000FEF793FDFB79164AD35C1A46174B53F8B7
:1044700022301A460C212820FEF7B6FD4FF4FF1219
:1044800000212820FEF7B0FD114A00212820FEF768
:10449000ABFD222200213620FEF777FD0722012105
:1044A0003620FEF772FD0020FEF704F913220C21DE
:1044B0002A20FEF76AFD00BF0837BD4680BD00BF59
:1044C000C86C0100E86C0100006D0100D06C0100B7
:1044D00000FF5F0080B582B000AF7860FFF7D0FCCE
:1044E0004FF4FF1200212820FEF77EFD0E4A002126
:1044F0002820FEF779FD0220FFF728FC0D20FFF7AA
:1045000025FC7B68032B01D804237B607A6800219B
:104510000A20FEF769FD102224212F20FEF735FD29
:1045200000BF0837BD4680BD00FF5F0080B584B086
:1045300000AF0346FB7180233B7307F10C0301229C
:1045400011212820FEF715FC0A233B7307F10C0309
:10455000012212212820FEF70CFC0F233B7307F1E8
:104560000C03012212212820FEF703FC00233B73D9
:1045700007F10C03012200212A20FEF7FAFB012398
:104580003B7307F10C03012200212A20FEF7F1FB07
:10459000FB79012B0AD10120FDF798FC07F10C03F0
:1045A000022203212A20FEF740FC0CE00020FFF746
:1045B000CDFB07F10C03022203212A20FEF735FC74
:1045C0000120FFF7C3FB3B7BFB737B7BBB730023AB
:1045D0003B7307F10C03012200212A20FEF7C9FBDF
:1045E000BB7B1B021AB2FB7B1BB213431BB29BB2F9
:1045F00018461037BD4680BD80B500AF04212A2083
:10460000FEF7B0FC0346184680BD80B500AF03211D
:104610002A20FEF7A7FC0346184680BD80B58CB063
:1046200000AF0346FB800023BB6100233B620023F5
:10463000FB8200213620FEF795FC03467B750421A2
:104640003620FEF772FC03467B8200212820FEF70D
:1046500045FCF860012200213620FEF796FC00227E
:1046600004213620FEF7A4FC374A00212820FEF75B
:10467000BBFC222200213620FEF787FC80237B62D0
:104680008023BB624FF49673FB610023FB6242E020
:10469000BB6A5B08BB627A6ABB6A13437B627B6A54
:1046A000DBB21A460B212A20FEF76FFCBC22082140
:1046B0002A20FEF76AFCBD2208212A20FEF765FCAD
:1046C0006420FDF703FC09212A20FEF72EFC034697
:1046D000C3F30B03FB82FA8AFB88D31A18460BF04C
:1046E0003FFEB861BA69FB699A4203DABB69FB61B4
:1046F0007B6A3B62FA8AFB889A4204D97A6ABB6A6F
:1047000013437B6204E0BB6ADB437A6A13407B623B
:10471000FB6A0133FB62FB6A062BB9DD7B7D1A461F
:1047200000213620FEF731FC7B8A1A460421362010
:10473000FEF73EFCFA6800212820FEF755FC3B6A94
:1047400018463037BD4680BD00A71F0080B489B031
:1047500000AF7860396000237B6100233B6151E04A
:104760000023FB613B68BB613B69DB007A6822FA8E
:1047700003F35B09DBB203F00703FB733B69DB0068
:104780007A6822FA03F3DBB203F01F03BB7316E06F
:10479000BA7BBB691344142B06DDFB690133FB6153
:1047A000BB69053BBB610AE0BA7BBB691344032BC1
:1047B00005DCFB690133FB61BB690533BB61BA7B77
:1047C000BB691344032BE3DDBA7BBB691344142B91
:1047D000DEDCFB69DAB2FB7B13447B73BB69DAB2C4
:1047E000BB7B13443B737B7B5A013B7B13431A46D1
:1047F0003B69DB0002FA03F37A6913437B613B698F
:1048000001333B613B69032BAADD7B6918462437E2
:10481000BD465DF8047B704790B58BB000AF034692
:10482000396187ED020B87ED001BFB75D7E900238B
:10483000D7E9020111F02EFA03460C46C7E9083405
:10484000FB7D144AD35C144ADB001344D3E90034E3
:104850001A462346D7E9080111F0D4FB03460C465B
:10486000C7E906344FF000020C4BD7E9060111F0FE
:10487000F3FC03460C461846214611F073FE03462E
:1048800019463869FFF762FF034618462C37BD46C4
:1048900090BD00BFC86C0100806D01000000E03FCA
:1048A00080B588B000AF0346FB710A237B6100230B
:1048B000FB6100237B8200233B820023BB6100213C
:1048C0003620FEF74FFB0346FB7304213620FEF72C
:1048D0002CFB0346BB8100212820FEF7FFFAB860BD
:1048E000012200213620FEF750FB00220421362051
:1048F000FEF75EFB264A00212820FEF775FB2222E8
:1049000000213620FEF741FB0023BB6121E0FB794B
:104910001A460B212A20FEF738FBBC2208212A2048
:10492000FEF733FBBD2208212A20FEF72EFB642070
:10493000FDF7CCFA09212A20FEF7F7FA0346C3F364
:104940000B033B823B8AFA691344FB61BB69013369
:10495000BB61BA697B699A42D9DBFB7B1A460021AD
:104960003620FEF712FBBB891A4604213620FEF7DB
:104970001FFBBA6800212820FEF736FB7B69FA6925
:10498000B2FBF3F37B827B8A18462037BD4680BD9D
:1049900000A71F0080B5C4B002AF0246BB1D1A803D
:1049A000144ABB1D1B881380134B00221A80BB1DA9
:1049B0001A8807F10803114918460BF069FE07F140
:1049C00008031946002008F00BFF07F108001A231E
:1049D0000093262312220A490BF05AFE07F108031E
:1049E0001946002008F0FCFE00BF07F58477BD469D
:1049F00080BD00BF8C1000208E100020B06D010023
:104A0000D86D010000000000B0B594B000AFF860B0
:104A1000B9607A603B607B68A3F500433C3B184675
:104A200011F076FA03460C46C7E912343B68A3F549
:104A300000433C3B184611F06BFA03460C46C7E9AD
:104A40001034BB6803F500433C33184611F060FA9C
:104A500003460C46C7E90E34FB6803F500433C33BC
:104A6000184611F055FA03460C46C7E90C34D7E94D
:104A70001023D7E9120111F0C5FA03460C4625466A
:104A80001C46D7E90C23D7E90E0111F0BBFA024608
:104A90000B462046294611F0FDF803460C462546F4
:104AA0001C46D7E91023D7E9120111F0F5F80246A8
:104AB0000B4610461946D7E90E2311F0EDF80246D1
:104AC0000B4610461946D7E90C2311F0E5F80246CB
:104AD0000B462046294611F0BFFB03460C46C7E9AA
:104AE0000A341EA3D3E90023D7E90A0111F08AFA98
:104AF00003460C46C7E908341AA3D3E90023D7E9D3
:104B0000080111F07FFA03460C46C7E906344FF05E
:104B100000034FF00004C7E90434D7E90423D7E9C0
:104B2000060111F0B7F803460C46C7E906344FF00A
:104B30000002094BD7E9060111F064FA03460C465E
:104B40001846214611F036FD03469BB218465037F1
:104B5000BD46B0BDAFF3008000005940FA48CE3BDF
:104B60001835B13D0000001319DDB1412DE9F043C6
:104B70008BB000AF78607A689289122A01D0052341
:104B800063E07A68D2E90012C7E90812D7E908128F
:104B900011F1FA5342F100044FF000014FF000020E
:104BA000190A41EA0461220A0B46FB61FB694FF0D6
:104BB00000041E0E1D02274B4FF0FF0405EA0308F8
:104BC00006EA0409C7E904897B689B68FB607B6887
:104BD0001B69BB60BB6811221A7000F001FA034622
:104BE0001A46BB685A701C4B1A88BB685A80FB680F
:104BF0005B889AB2BB689A80FB681B8A9AB2BB68D2
:104C00009A843A693B6AD21ABB689A61FA689368D7
:104C1000D4681A46BB68DA613A69BB681A62BB6835
:104C20003A6A9A607A6ADA60BB683A691A617A69A4
:104C30005A617B68FA699A617A68D7E90434C2E9F3
:104C400008347B6826229A82002318462C37BD46FA
:104C5000BDE8F08300FEFFFF8C1000202DE9F0433B
:104C60008BB000AF78607A689289262A01D005233C
:104C700060E07A6892687A627A6812693A627A6861
:104C8000D2E90012C7E906127A6AD2697A61D7E9D5
:104C9000061211F1FA5342F100044FF000014FF0F7
:104CA0000002190A41EA0461220A0B463B613B6992
:104CB0004FF000041E0E1D02214B4FF0FF0405EAC9
:104CC000030806EA0409C7E902893B6A12221A703E
:104CD00000F086F903461A463B6A5A70194B1A8847
:104CE0003B6A5A807B6A5B889AB23B6A9A807B6A8D
:104CF0009B8C9AB23B6A1A837B6A9A693B6A9A6078
:104D0000BA68BB69D21A3B6ADA60BA697B69D21A9F
:104D10003B6A1A617B6A1A6A3B6A5A617B683A6924
:104D20009A617A68D7E90234C2E908347B681A22AA
:104D30009A82002318462C37BD46BDE8F08300BF99
:104D400000FEFFFF8C10002090B5C9B000AF3B1DE6
:104D500018603B1D1B689B891A2B01D005236EE050
:104D60003B1D1B68D3E90034C7E946343B1D1B6873
:104D70009B68C7F814313B1D1B681B69C7F81031CD
:104D8000D7F814319868D7F81431D968D7F81431A6
:104D90001C69D7F81821D7F814315B69D31A224659
:104DA000FFF732FE0346A7F80E31D7F81031132271
:104DB0001A7000F015F903461A46D7F810315A70E8
:104DC000214B1A88D7F810315A80D7F814315B88F4
:104DD0009AB2D7F810319A80D7F814311B8B9AB257
:104DE000D7F810315A82D7F81031B7F80E211A824D
:104DF000D7F81031D7F818219A60D7F81C21DA605B
:104E00003B1D1B6814229A823B1D1A684FF0000359
:104E10004FF00004C2E908343B1D1B6800229A6170
:104E2000B7F80E2107F10C03084918460BF030FCC7
:104E300007F10C031946002008F0D2FC00231846A5
:104E400007F59277BD4690BD8C100020F86D0100EB
:104E50002DE9F04389B000AF02463960FA803A6824
:104E6000D2E9001211F1FA5342F100044FF00001AF
:104E70004FF00002190A41EA0461220A0B46FB6165
:104E8000FB694FF000041E0E1D021D4B4FF0FF0486
:104E900005EA030806EA0409C7E904893B681B69B7
:104EA000FB60FB6810221A7000F09AF803461A465D
:104EB000FB685A70134B1A88FB685A80FB68FA88A3
:104EC0009A80FB683A699A607A69DA600E4B1B88AF
:104ED0005A1C91B20C4A1180FA6813823A68D7E9D9
:104EE0000434C2E908343B68FA699A613B681222CB
:104EF0009A82002318462437BD46BDE8F08300BFE0
:104F000000FEFFFF8C1000208E10002080B584B0C2
:104F100000AF78600B46FB707B689B89052B01D83E
:104F200002231AE0FB78FB73FB7B102B04D178681B
:104F3000FFF71CFE034610E0FB7B112B04D17868C1
:104F4000FFF78CFE034608E0FB7B122B04D1786848
:104F5000FFF7FAFE034600E0032318461037BD466C
:104F600080BD000080B5C2B000AF02463B4619606C
:104F7000BB1D1A80BB1D1A8807F10803114918468A
:104F80000BF086FB07F108031946002008F028FC07
:104F90000D4ABB1D1B8813800C4B00221A700C4A53
:104FA0003B461B6813600B4B00220B490B48FEF776
:104FB000DFFC0020FFF791F800BF07F58477BD46BE
:104FC00080BD00BF146E01009010002092100020E0
:104FD00014110020DD50000021500000015000009D
:104FE00080B400AF054B1B785A1CD1B2034A117034
:104FF0001846BD465DF8047B704700BF9210002044
:1050000080B582B000AF7860FEF7AEFFFFF7B3F96E
:105010000020FFF762F800BF0837BD4680BD0000E2
:1050200090B5C7B000AF3B1D18603B1D1B689B8847
:10503000023B072B0FD807F10C03244918460BF04D
:1050400027FB07F10C031946002008F0C9FB0020DC
:10505000FFF743F835E03B1D1B689B88023B9BB282
:10506000002219461A48FDF79FFDFCF7D1FEC7E95B
:105070004401174BC7F80C31D7F80C319B889BB211
:105080004FF6FF7293420BD0D7F80C319B889AB23F
:10509000104B1B889A4203D00020FFF71EF810E047
:1050A0000D4B1B68002B09D00B4B1C683B1D1B686C
:1050B0009B88991ED7E944230548A0470020FFF7A5
:1050C0000CF807F58E77BD4690BD00BF286E010035
:1050D00094100020901000201411002080B582B0A0
:1050E00000AF7860FEF740FFFFF745F90020FEF7BC
:1050F000F4FF00BF0837BD4680BD80B582B000AF69
:1051000078603960FEF730FF3B689BB202339BB298
:10511000002279681846FDF708FD3B689BB2023310
:105120009BB2012200211846FDF71EFD0020FEF76C
:10513000C1FE002318460837BD4680BD80B584B047
:1051400000AFF860B9607A607B68002B05D1B96860
:10515000F868FFF7D2FF03461AE0FEF705FFBB68C9
:105160009BB202339BB20022F9681846FDF7DDFCC2
:10517000BB689BB202339BB2012200211846FDF7A7
:10518000F3FC7868FEF788FE0120FEF793FE00230B
:1051900018461037BD4680BD80B582B000AF0123F0
:1051A0003B704FF6FF73BB80074B1B887B80FFF77C
:1051B00017FF03467B703B4608211846FFF79DFF0B
:1051C00000BF0837BD4680BD9010002080B483B07A
:1051D00000AF00237B6007E0094A7B68002102F8EA
:1051E00023107B6801337B607B68052BF4DD054B66
:1051F00000221A6000BF0C37BD465DF8047B704783
:10520000181100203011002080B485B000AF034693
:10521000FB801D4B1B68052B01DD00232DE00023C7
:10522000FB6012E0194AFB689B0013445B88FA8814
:105230009A4207D1154AFB6812F82330002B01D09F
:1052400000231AE0FB680133FB600F4B1B68FA6810
:105250009A42E7DB0C4B1B680C4A012102F8231031
:10526000094B1B68094A9B001344FA885A80064B75
:105270001B680133044A1360012318461437BD46E6
:105280005DF8047B704700BF30110020181100202A
:1052900080B400AF034B1B681846BD465DF8047B25
:1052A000704700BF3011002080B483B000AF786039
:1052B000054A7B689B0013445B8818460C37BD4643
:1052C0005DF8047B704700BF1811002080B483B0E4
:1052D00000AF0346FB71FB7903F01F02074997F902
:1052E00007305B09012000FA02F241F8232000BFD9
:1052F0000C37BD465DF8047B704700BF00E100E05D
:1053000080B483B000AF0346FB71FB7903F01F024A
:10531000074997F907305B09012000FA02F22033B0
:1053200041F8232000BF0C37BD465DF8047B704771
:1053300000E100E080B483B000AF0346FB71FB796D
:1053400003F01F02074997F907305B09012000FAB3
:1053500002F2403341F8232000BF0C37BD465DF810
:10536000047B704700E100E080B483B000AF0346E7
:10537000FB71FB7903F01F02074997F907305B09BE
:10538000012000FA02F2603341F8232000BF0C37FD
:10539000BD465DF8047B704700E100E080B483B057
:1053A00000AF03463960FB7197F90730002B0BDA29
:1053B0003B68DAB20C49FB7903F00F03043B52015E
:1053C000D2B20B441A7609E03B68DAB2074997F982
:1053D00007305201D2B20B4483F8002300BF0C37D0
:1053E000BD465DF8047B704700ED00E000E100E0A1
:1053F00080B584B000AF78607B68002B0AD0074B83
:1054000043F00103FB607B689B01BB60FB68B868ED
:10541000984700E000BF1037BD4680BD506E0100C8
:1054200080B582B000AF7860054A7B68C2F8083565
:1054300007211120FFF7B2FF00BF0837BD4680BD2E
:105440000010014080B500AF0D4B4FF48032C3F81F
:1054500044230B4B4FF48032C3F804231120FFF791
:1054600083FF1120FFF732FF054B01221A602F2026
:10547000FFF7BEFF034B01221A7000BF80BD00BFC3
:10548000001001405212002080B500AF1120FFF73C
:1054900037FF0F4B4FF48032C3F848230C4B4FF4C7
:1054A0008032C3F808230A4B01225A602F20FFF7ED
:1054B0009FFF074B01229A60064B00221A602F20A3
:1054C000FFF796FF044B00221A7000BF80BD00BF9B
:1054D00000100140441200205212002080B400AF9E
:1054E000034BD3F804351846BD465DF8047B70477E
:1054F0000010014080B483B000AF786039607A68F2
:105500003B68D31A23F07F4318460C37BD465DF83D
:10551000047B704780B483B000AF7860044A7B6836
:10552000C2F8403500BF0C37BD465DF8047B7047BC
:105530000010014080B487B000AF7860294B1B6831
:10554000002B03D1274A7B68136045E07B681A680B
:10555000244B1B681B689A4210D8224B1B681968A1
:105560007B681A681F4B1B688A1A1A601D4B1A68E1
:105570007B68DA611B4A7B6813602DE07B681B68DF
:10558000FB60184B1B687B61164B1B683B6109E095
:105590003B691B68FA68D31AFB603B697B613B6916
:1055A000DB693B613B69002B04D03B691B68FA68EF
:1055B0009A42EDD83B69002B05D03B691A68FB681D
:1055C000D21A3B691A607B68FA681A607B683A698C
:1055D000DA617B697A68DA6100BF1C37BD465DF825
:1055E000047B70474012002080B586B000AF786021
:1055F000294B1B68FB60284B1B687B617B693B6107
:1056000008E03A697B689A4208D03B697B613B6954
:10561000DB693B613B69002BF3D100E000BF3B69D4
:10562000002B01D1002333E07A693B699A4214D1FF
:10563000194B1B68DB69184A1360174B1B68002B5A
:105640000BD1164B01229A60154B00221A60154BA4
:1056500001221A702F20FFF7CBFE3B691B68BB604D
:105660003B69DA697B69DA617B69DB693B613B69CC
:10567000002B05D03B691A68BB681A443B691A6065
:10568000054B1B68FA689A4214BF01230023DBB262
:1056900018461837BD4680BD40120020001001405A
:1056A000441200205312002080B500AF1120FFF7F4
:1056B00041FE00BF80BD80B500AF1420FFF73AFE69
:1056C00000BF80BD80B584B000AF78600B467B80A2
:1056D0007B88082B0CBF01230023DBB2FB60FB6837
:1056E000002B02D1002000F0DBFE7B68BB60BB68B2
:1056F0001B68BA6852681046984700BF1037BD460D
:1057000080BD000080B586B000AF78607B685B69C3
:10571000BB607B689B69FB6007F10803084A0821AE
:1057200018460AF061FD78617B693B613B69002B9B
:1057300002D0386900F0B4FE00BF1837BD4680BD06
:10574000C556000080B584B000AF2B4B1B68002B02
:105750004ED000237B60FFF7C1FE0246274B1B683B
:1057600019461046FFF7C6FEB860234B1B68FB6066
:105770001DE0FB681B68BA689A421CD3FB681B6873
:10578000BA68D31ABB60FB681B687A6813447B60F5
:10579000FB683B60FB68DB69FB603B681B7C002BA4
:1057A00005D03B6800221A743868FFF7ABFFFB682E
:1057B000002BDED100E000BF114B1A78114B1B7893
:1057C0009A420CD10F4B1B780133DAB20D4B1A7091
:1057D0000C4B1B78022B02D10A4B00221A70094B8A
:1057E0001B781946084A7B6842F82130FFF763FFAF
:1057F00000BF1037BD4680BD40120020441200207B
:1058000050120020511200204812002080B483B0B2
:1058100000AF7860194B1A78194B1B789A4223D045
:10582000164B1B780133DAB2144B1A70134B1B78EA
:10583000022B02D1114B00221A70104B1B781A4612
:10584000104B53F822207B681A607B681A680E4B55
:105850001B6813440C4A13600B4B1B6823F07F43F7
:10586000094A1360012303E07B6800221A600023C9
:1058700018460C37BD465DF8047B70475012002077
:1058800051120020481200204412002080B489B038
:1058900000AFF860B9607A600023FB6138E0214B0B
:1058A0001B68BB61BB691B68FA689A4206D2BB6978
:1058B0001A68FB68D21ABB691A602DE0BB691B68C5
:1058C000FA68D31AFB60BB691B68FA691344FB6171
:1058D000BB6900221A60134B1B687B61BB69DB69E3
:1058E000104A1360BB69DB68002B11D0BA68FB69F2
:1058F000134423F07F42BB695A60BB69DA68BB6915
:105900009A607B681A68BB69DA617B687A691A6099
:10591000044B1B68002BC2D100BF2437BD465DF885
:10592000047B70474012002080B588B000AF7860DB
:105930000023FB77654B1B687B61A9E07B68002B2C
:1059400005D07B68BB61BB69DB697B6060E0604B55
:105950001B781A4613465B001344DB005C4A134471
:1059600004333B615A4B1B780133DAB2584B1A703F
:10597000574B1A78564B9B789A4202D1544B0022CF
:105980001A703B695B68BB613B691B78022B04D0D2
:10599000032B1AD0012B1ED01CE03B695B68184614
:1059A000FFF722FE0346002B01D00123FB77BB69E2
:1059B00000221A746CE0454B1B68FB60FB680022F8
:1059C0001A74FB68DB69414A1360404B1B68002B6B
:1059D000F1D15DE05CE000BFBB691B7C002B00D017
:1059E00056E03B699A68BB695A603B69DA68BB69F3
:1059F0009A603B691A69BB69DA603B695A69BB699D
:105A00009A61344B1B78002B02D0BB6900225A608C
:105A1000BB695A68304B1B68D31A23F07F432F4A67
:105A200093420ED8BB695A682B4B1B681946104627
:105A3000FFF760FD0246BB699B681A44BB691A60A8
:105A400017E0254B1A68BB695B6819461046FFF7DB
:105A500051FDB860BB699B68BA689A4206D2BB69BF
:105A60009A68BB68D21ABB691A6002E0BB6900225F
:105A70001A60BB6900225A60BB6900229A60BB6948
:105A800001221A74BB690022DA61B869FFF752FD7E
:105A90007B68002B7FF452AF0D4B1A780C4B5B7870
:105AA0009A427FF44BAFFB7F002B04D1074B1B685E
:105AB0007A699A4201D0012300E0002303F0010338
:105AC000DBB218462037BD4680BD00BF4012002023
:105AD000341100205312002044120020FEFF7F00EA
